:1000000012C021C020C01FC01EC01DC01CC01BC00C
:100010001AC019C018C028C050C015C014C013C0E1
:1000200012C011C010C011241FBECFE5D4E0DEBF46
:10003000CDBF11E0A0E6B0E001C01D92A538B10728
:10004000E1F7B2D0EEC0DCCF96B1976196B997B127
:10005000982B97B93E9A3D9A379A369A349BFECFA1
:10006000349A85B190E008951F920F920FB60F92C7
:1000700011242F938F939F93EF93FF939BB12CB1F8
:10008000E0918201EF5F80918301E81711F482E033
:1000900008C0892F8871E0938201F0E0E058FF4F9B
:1000A000208380938401FF91EF919F918F912F91F5
:1000B0000F900FBE0F901F9018951F920F920FB6C2
:1000C0000F9211248F939F93EF93FF939091800150
:1000D00080918101981761F0E0918101EF5FEF71EC
:1000E000E0938101F0E0E05AFF4F80818CB901C0BC
:1000F0005598FF91EF919F918F910F900FBE0F90A8
:100100001F901895109282011092830108959C010E
:10011000109280011092810110928201109283014D
:1001200097FF03C082E08BB93F7730BD29B988E9DA
:100130008AB986E880BD08959091820180918301FB
:10014000981719F420E031E011C0E0918301EF5FCE
:10015000E0938301F0E0E058FF4F3081209184016B
:10016000922F80E0AC01430F511D9A01C9010895FF
:100170005D9BFECF8CB908955D9BFECF8CB9089531
:10018000FC0104C05D9BFECF31968CB98081882331
:10019000C9F7089503C05D9BFECF2CB9FC01019601
:1001A00024912223C1F70895EF92FF920F931F939A
:1001B000CF93DF938FEF87BB14BAC0E0D0E09EE20D
:1001C000E92E00E711E08EE1F82E85E090E03CDFBB
:1001D0008F3F910560F0C0FD0AC0E8BA8FEF9FEF36
:1001E000F8013197F1F70197D9F718BA21968FEFF7
:1001F0009FEFF8013197F1F70197D9F785E090E08B
:1002000023DF8F3F910508F3C0FFDFCFF8BA80E20C
:100210009EE4F8013197F1F70197D9F718BA2196C2
:06022000D4CFF894FFCFDB
:00000001FF
